:020000040800F2
:1000000000000520010C0008CD030008CF03000804
:10001000D1030008D3030008D50300080000000046
:10002000000000000000000000000000D7030008EE
:10003000D903000800000000DB030008DD0300080E
:10004000510C0008510C0008510C0008510C00081C
:10005000510C0008510C0008510C0008510C00080C
:10006000510C0008510C0008510C0008510C0008FC
:10007000510C0008510C0008510C0008510C0008EC
:10008000510C0008510C0008510C0008510C0008DC
:10009000510C0008510C0008510C0008510C0008CC
:1000A000510C0008510C0008510C0008510C0008BC
:1000B000510C0008510C0008510C0008510C0008AC
:1000C000510C0008510C0008510C0008510C00089C
:1000D000510C0008510C0008510C0008510C00088C
:1000E000510C0008510C0008510C0008510C00087C
:1000F000510C0008510C0008510C0008510C00086C
:10010000510C0008510C0008510C0008510C00085B
:10011000510C0008510C0008510C0008510C00084B
:10012000510C0008510C0008510C0008510C00083B
:10013000510C0008510C0008510C0008510C00082B
:10014000510C0008510C0008510C0008510C00081B
:10015000510C0008510C0008510C0008510C00080B
:10016000510C0008510C0008510C0008510C0008FB
:10017000510C0008510C0008510C00080000000050
:10018000510C0008510C0008510C0008510C0008DB
:10019000510C0008510C0008510C0008510C0008CB
:1001A000510C0008510C0008510C0008510C0008BB
:1001B000510C0008510C0008510C0008510C0008AB
:0801C000510C0008510C00086D
:1001C80053B94AB9002908BF00281CBF4FF0FF31B6
:1001D8004FF0FF3000F00CB8ADF1080C6DE904CE1B
:1001E80000F060FDDDF804E0DDE9022304B07047AB
:1001F800704700BF0348044B834202D0034B03B14E
:10020800184770470C0000200C0000200000000078
:100218000548064B1B1AD90F01EBA301491002D060
:10022800034B03B1184770470C0000200C00002056
:100238000000000010B5064C237843B9FFF7DAFF39
:10024800044B13B10448AFF300800123237010BDA1
:100258000C00002000000000680F000808B5054BDE
:100268001BB105490548AFF30080BDE80840FFF71A
:10027800CFBF00BF0000000010000020680F00087A
:1002880084B00F4B1A6B42F001021A631A6B02F02A
:1002980001020192019A1A6B42F004021A631A6B66
:1002A80002F004020292029A1A6B42F080021A6368
:1002B8001B6B03F080030393039B04B0704700BFDC
:1002C8000038024072B6FEE710B594B03022002123
:1002D80008A800F0DFFC0024039404940594069415
:1002E800079400F01FFC194B1A6C42F080521A64F4
:1002F8001B6C03F080530193019B154A136823F488
:10030800404343F480431360136803F4404302936B
:10031800029B0223089301230B9310230C930E9442
:1003280008A800F0DBF860B90F23039300210491BB
:1003380005910691079103A800F03EFB18B914B087
:1003480010BDFFF7BFFFFFF7BDFF00BF0038024039
:100358000070004008B500F013FCFFF7B5FFFFF789
:100368008FFF154A536C43F020035364134B1A68EC
:1003780042F400421A601A6842F400521A601A6A7B
:1003880042F000621A621A6A42F000421A62A3F549
:1003980074438B22DA601A6842F001021A601A6804
:1003A80042F008021A60064B61229A624FF47A7092
:1003B80000F004FCF7E700BF0038024000080240E4
:1003C80000140140FEE7FEE7FEE7FEE7FEE77047A0
:1003D8007047704708B500F0DFFB08BD82B00A4BD4
:1003E8001A6C42F080521A641A6C02F08052009221
:1003F800009A5A6C42F480425A645B6C03F480435E
:100408000193019B02B0704700380240002804DBCA
:100418000901C9B2044B1954704700F00F000901D3
:10042800C9B2024B1954704700E400E014ED00E033
:1004380000B500F00700C0F1070CBCF1040F28BF9D
:100448004FF0040C031D062B0FD9C31E4FF0FF3EBF
:100458000EFA0CF021EA000199400EFA03FE22EA96
:100468000E0241EA02005DF804FB0023EEE70000FB
:100478000649CB6823F4E0631B041B0C000200F45C
:10048800E0600343024A1A43CA60704700ED00E087
:100498000000FA0510B50446054BD868C0F30220E1
:1004A800FFF7C6FF01462046FFF7B0FF10BD00BFAB
:1004B80000ED00E00138B0F1807F0BD24FF0E0236F
:1004C8005861054AF02182F823100020986107221C
:1004D8001A6170470120704700ED00E0002800F025
:1004E800FF8170B582B00446036813F0010F29D06C
:1004F800954B9B6803F00C03042B1AD0924B9B6816
:1005080003F00C03082B0FD06368B3F5803F40D08D
:10051800002B54D18C4B1A6822F480321A601A6866
:1005280022F480221A6039E0874B5B6813F4800F4D
:10053800EAD0854B1B6813F4003F03D06368002B97
:1005480000F0D081236813F0020F74D07E4B9B68B3
:1005580013F00C0F5ED07C4B9B6803F00C03082B48
:1005680053D0E368002B00F08980774A136843F082
:100578000103136000F01CFB0546734B1B6813F066
:10058800020F72D100F014FB401B0228F5D903209A
:10059800ADE16D4A136843F48033136063682BB38D
:1005A80000F006FB0546684B1B6813F4003FC9D1F1
:1005B80000F0FEFA401B6428F5D9032097E1B3F553
:1005C800A02F09D0604B1A6822F480321A601A688A
:1005D80022F480221A60E1E75B4B1A6842F4802219
:1005E8001A601A6842F480321A60D7E700F0E0FA1D
:1005F8000546554B1B6813F4003FA3D000F0D8FA0A
:10060800401B6428F5D9032071E14F4B5B6813F454
:10061800800FA6D14C4B1B6813F0020F03D0E36880
:10062800012B40F06181484A136823F0F8032169DF
:1006380043EAC1031360236813F0080F46D06369C7
:1006480083B3414A536F43F00103536700F0B0FA94
:1006580005463D4B5B6F13F0020F37D100F0A8FA47
:10066800401B0228F5D9032041E1374A136823F0DB
:10067800F803216943EAC1031360DCE7324A1368CF
:1006880023F00103136000F093FA05462E4B1B6814
:1006980013F0020FCFD000F08BFA401B0228F5D9D7
:1006A800032024E1284A536F23F00103536700F025
:1006B8007FFA0546244B5B6F13F0020F06D000F05B
:1006C80077FA401B0228F5D9032010E1236813F0BC
:1006D800040F7DD01C4B1B6C13F0805F1ED11A4B8E
:1006E8001A6C42F080521A641B6C03F08053019319
:1006F800019B0125154B1B6813F4807F10D0A3685C
:10070800012B25D0002B3BD10F4B1A6F22F0010291
:100718001A671A6F22F004021A671EE00025E9E73B
:100728000A4A136843F48073136000F041FA0646DE
:10073800064B1B6813F4807FE1D100F039FA801B67
:100748006428F5D90320D2E0003802400070004048
:100758006E4A136F43F001031367A36833B300F0C5
:1007680027FA0646694B1B6F13F0020F2FD100F0D2
:100778001FFA801B41F288339842F3D90320B6E070
:10078800052B09D0614B1A6F22F001021A671A6F04
:1007980022F004021A67E0E75C4B1A6F42F0040289
:1007A8001A671A6F42F001021A67D6E700F000FADA
:1007B8000646564B1B6F13F0020F08D000F0F8F9ED
:1007C800801B41F288339842F3D903208FE0FDB9AA
:1007D800A369002B00F08A804C4A926802F00C0250
:1007E800082A58D0022B19D0484A136823F080737E
:1007F800136000F0DDF90446444B1B6813F0007FDA
:1008080047D000F0D5F9001B0228F5D903206EE087
:100818003E4A136C23F080531364D9E73B4A1368AC
:1008280023F08073136000F0C3F90546374B1B684B
:1008380013F0007F06D000F0BBF9401B0228F5D961
:10084800032054E0E369226A1343626A43EA82138D
:10085800A26A5208013A43EA0243E26A43EA02639F
:1008680043F00053294A5360136843F080731360C0
:1008780000F09EF90446254B1B6813F0007F06D153
:1008880000F096F9001B0228F5D903202FE000207C
:100898002DE000202BE01D4A5268012B29D002F4DC
:1008A8008003E1698B4226D102F03F03216A8B4223
:1008B80023D1616A47F6C0731340B3EB811F1ED181
:1008C80002F44031A36A5B08013BB1EB034F18D136
:1008D80002F07062E36AB2EB036F14D1002006E005
:1008E80001207047012002E0012000E0002002B052
:1008F80070BD0120FBE70120F9E70120F7E701209F
:10090800F5E70120F3E70120F1E700BF00380240D6
:1009180008B5264B9B6803F00C03042B41D0082B29
:1009280041D1224B5A6802F03F025B6813F4800FF2
:1009380012D01E4B5968C1F388111D480023A1FB32
:100948000001FFF73DFC194B5B68C3F3014301331A
:100958005B00B0FBF3F008BD144B5868C0F3881077
:100968004FEA401CBCEB000C6EEB0E0E4FEA8E13E8
:1009780043EA9C634FEA8C11B1EB0C0163EB0E0365
:10098800DB0043EA5173C90011EB000C43F100038B
:10099800990200234FEA8C2041EA9C51FFF710FC92
:1009A800D1E70348D7E70348D5E700BF003802403E
:1009B80040787D010024F400002800F0A08070B584
:1009C8000D460446524B1B6803F00F038B420BD2B3
:1009D8004F4A136823F00F030B431360136803F0A7
:1009E8000F038B4240F08D80236813F0020F17D05D
:1009F80013F0040F04D0474A936843F4E05393601C
:100A0800236813F0080F04D0424A936843F4604304
:100A18009360404A936823F0F003A1680B43936006
:100A2800236813F0010F31D06368012B20D0022B0B
:100A380025D0384A126812F0020F64D035498A6806
:100A480022F0030213438B6000F0B2F80646314BE4
:100A58009B6803F00C036268B3EB820F16D000F0BA
:100A6800A7F8801B41F288339842F0D9032045E06B
:100A7800284A126812F4003FE0D101203EE0254ADE
:100A8800126812F0007FD9D1012037E0204B1B6893
:100A980003F00F03AB420AD91D4A136823F00F0372
:100AA8002B431360136803F00F03AB422DD1236867
:100AB80013F0040F06D0174A936823F4E053E16853
:100AC8000B439360236813F0080F07D0114A93680B
:100AD80023F46043216943EAC1039360FFF718FFD9
:100AE8000C4B9B68C3F303130B4AD35CD8400B4BE6
:100AF80018600B4B186800F01DF8002070BD01202D
:100B080070470120FAE70120F8E70120F6E700BF67
:100B1800003C024000380240800F00080800002016
:100B280004000020024A136843F48073136070477E
:100B38000070004010B504460E4B1A784FF47A73D3
:100B4800B3FBF2F30C4A1068B0FBF3F0FFF7B2FC0A
:100B580068B90F2C01D901200AE0002221464FF084
:100B6800FF30FFF797FC054B1C60002000E00120D8
:100B780010BD00BF00000020080000200400002075
:100B880008B50320FFF774FC0F20FFF7D3FFFFF72A
:100B980025FC002008BD0000034A1168034B1B78A0
:100BA8000B441360704700BF28000020000000209D
:100BB800014B1868704700BF2800002038B504466C
:100BC800FFF7F6FF0546B4F1FF3F02D0044B1B7850
:100BD8001C44FFF7EDFF401BA042FAD338BD00BF0D
:100BE80000000020034AD2F8883043F47003C2F8AA
:100BF8008830704700ED00E0DFF834D00D480E492A
:100C08000E4A002302E0D458C4500433C4188C425E
:100C1800F9D30B4A0B4C002301E013600432A242C3
:100C2800FBD3FFF7DFFF00F011F8FFF793FB7047E6
:100C380000000520000000200C000020A00F000884
:100C48000C0000202C000020FEE7000070B50D4DC0
:100C58000D4C641BA4100026A64209D10B4D0C4C68
:100C680000F07EF9641BA4100026A64205D170BDD1
:100C780055F8043B98470136EEE755F8043B98478A
:100C88000136F2E7980F0008980F0008980F00083F
:100C98009C0F000802440346934200D1704703F8B2
:100CA800011BF9E72DE9F047089D0E4604460F465B
:100CB800002B4AD194468C45B2FA82F260D942B1EF
:100CC800C2F12003974020FA03F30CFA02FC1F43F9
:100CD80094404FEA1C4E1FFA8CF6B7FBFEF1230C2A
:100CE8000EFB117743EA074301FB06F098420AD945
:100CF8001CEB030301F1FF3780F01581984240F2A5
:100D08001281023963441B1AA4B2B3FBFEF00EFB36
:100D1800103344EA034400FB06F6A6420AD91CEB4A
:100D2800040400F1FF3380F00081A64240F2FD8008
:100D38006444023840EA0140A41B00211DB1D4409C
:100D48000023C5E90043BDE8F0878B4205D90DB102
:100D5800C5E9000100210846F5E7B3FA83F1002947
:100D680046D1B34202D3824200F2F580841A66EB80
:100D7800030201201746002DE5D0C5E90047E2E748
:100D8800002A40F09380A1EB0C034FEA1C471FFA9E
:100D98008CFE0121B3FBF7F607FB1630230C43EA60
:100DA80000430EFB06F0984208D91CEB030306F13A
:100DB800FF3802D2984200F2D08046461B1AA4B2ED
:100DC800B3FBF7F007FB103344EA03440EFB00FEC5
:100DD800A64508D91CEB040400F1FF3302D2A6454E
:100DE80000F2B6801846A4EB0E0440EA0640A5E7D8
:100DF800C1F120078B4022FA07FC4CEA030C06FAE3
:100E080001FE20FA07F426FA07F344EA0E0400FA72
:100E180001F84FEA1C404FEA1449B3FBF0FE1FFAF1
:100E28008CF600FB1E3349EA03430EFB06F999458D
:100E380002FA01F20BD91CEB03030EF1FF3A80F022
:100E48008580994540F28280AEF1020E6344A3EB9F
:100E58000909A4B2B9FBF0F300FB139944EA094469
:100E680003FB06F6A64208D91CEB040403F1FF3085
:100E780068D2A64266D9023B644443EA0E40A41BEA
:100E8800A0FB02E6B4427346B14652D34FD05DB1DF
:100E9800B8EB030264EB090404FA07F722FA01F33A
:100EA8001F43CC40C5E9007400214CE7C2F1200182
:100EB80020FA01F30CFA02FC26FA01F196403343BA
:100EC8004FEA1C471FFA8CFEB1FBF7F007FB101620
:100ED800190C41EA064100FB0EF68E4204FA02F4B0
:100EE80008D91CEB010100F1FF382DD28E422BD915
:100EF80002386144891B9BB2B1FBF7F607FB161158
:100F080043EA014306FB0EF1994208D91CEB03039F
:100F180006F1FF3814D2994212D9023E63445B1A93
:100F280046EA004136E73946EDE6184602E7F0455D
:100F3800ADD2BEEB020366EB0C060138B146A6E75C
:100F48004646ECE7034698E74046D3E7D6467EE7B1
:100F58006444023847E708460DE7023E63442DE73C
:100F6800F8B500BFF8BC08BC9E467047F8B500BF8E
:080F7800F8BC08BC9E4670475E
:100F80000000000000000000010203040607080939
:080F90001CFDFF7F01000000C1
:040F980065020008E6
:040F9C003D0200080A
:0C0FA00001000000100000000024F4001C
:0400000508000C01E2
:00000001FF
